:100000000A128A110C280134FE00030EF0000A08BF
:10001000F1000A168A11FA2B0A128A110F2883138B
:10002000E330FD001230FE003330FF00CA308400A0
:100030000A168A110F220A128A110A128A1503203F
:100040000A128A11DA000A128A1103200A128A118E
:10005000FB00A0308400CA300A168A15BA270A129B
:100060008A11523084005A300A168A15BA270A12A9
:100070008A11FA0183010A128A113E280A168A118E
:1000800042250A128A1183160317A6018316031349
:100090006008831603179F008316031361088316F5
:1000A0000317A00083160313620883160317A10029
:1000B000CA308400903083120313CE000C30CF007E
:1000C00083130008D000040AD1004E08840083176F
:1000D00050088000040ACE0051088400CF0B60282D
:1000E00083160317A4017830F5009130F600003034
:1000F0000A168A1170230A128A110A168A11E62139
:100100000A128A11720883120313CE007308CF00FB
:10011000D001D1015108F9005008F8004F08F7004C
:100120004E08F60000300A128A15E0200A128A11E1
:10013000790883120313B1007808B0007708AF0084
:100140007608AE004130AD002430AC00CC30AB00BE
:10015000CD30AA000A128A116C230A128A11831266
:1001600003132D08C7002C08C6002B08C5002A0859
:10017000C4000A128A156A200A128A110A168A1104
:10018000E6210A128A11720883120313CE00730843
:10019000CF00D001D1015108F9005008F8004F08F4
:1001A000F7004E08F60000300A128A15E0200A1205
:1001B0008A11790883120313B1007808B000770818
:1001C000AF007608AE004130AD002430AC00CC303A
:1001D000AB00CD30AA000A128A116C230A128A11D0
:1001E000831203132D08C7002C08C6002B08C50076
:1001F0002A08C4000A128A156A200A128A11831278
:100200000313440883160317A30003308312031358
:10021000D0008A30CF005530CE00CE0B0D29CF0B49
:100220000D29D00B0D2901300A168A11F0220A126D
:100230008A1183160317A5002C309C0001309D0005
:1002400001309C020030031C9D039D021C0A031D0B
:100250002D291D0A031D2D292E2920293E30250672
:10026000031D332934294F299F30F2008C30F300CD
:100270009130F4000A168A11A9220A128A119F30BD
:1002800083120313A000831603172308831203139A
:10029000A1000A168A117B260A128A11012A3D3012
:1002A0002506031D542955298229053024020318E7
:1002B0005A295B2982290130A4079F30F2002408C3
:1002C00083120313CE004E07903E8400831700086C
:1002D000F300840A00088403F4000A168A11A92294
:1002E0000A128A119F3083120313A000831603178A
:1002F000230883120313A1000A168A117B260A120F
:100300008A11012A3B302506031D87298829A52942
:10031000240803198C298D29A5290130A4029F30B6
:10032000F200240883120313CE004E07903E84008F
:1003300083170008F300840A00088403F4000A16F7
:100340008A11A9220A128A11722937302506031947
:10035000AA29AB29B1292F302506031DB029B129BF
:10036000F1292608031DB529B629F1290130A60077
:10037000F20101300A168A115E240A128A11043031
:1003800083120313CF003D30CE00CE0BC529CF0B17
:10039000C529B730F6009030F7008130F8000A1612
:1003A0008A119B230A128A11F201C4300A168A119B
:1003B0005E240A128A11F2010F300A168A115E2495
:1003C0000A128A11A53083120313CE00CE0BE62940
:1003D000E929113083160317A200831203131215A3
:1003E000012A02302606031DF629F729012A0030CA
:1003F0000A168A11F0220A128A1183160317A50021
:10040000012A0630831603172402031C082A092A2E
:100410004A2B0530A4004A2B9F3083120313A200FD
:1004200083160317230883120313A3000A168A11E5
:10043000D0250A128A11642B83160317A6010A1607
:100440008A11C3210A128A11F2010C300A168A118C
:100450005E240A128A11A53083120313CE00CE0B3C
:100460002F2A322A831203131211652A02308316AF
:100470000317A6000A168A11C3210A128A11F20173
:100480000C300A168A115E240A128A11A5308312D2
:100490000313CE00CE0B4A2A4D2A5530831603177C
:1004A000A200BE28220883120313A200831603179A
:1004B00025080A128A1136250A128A11333A0319BD
:1004C0001C2A773A0319362A652A22308316031725
:1004D000A200642B8312031312158316031722083C
:1004E00083120313A200A630A30083160317250866
:1004F0000A128A1596210A128A11831603179E0082
:10050000992AA6010A168A11C3210A128A11F20138
:100510000C300A168A115E240A128A11A530831241
:100520000313CE00CE0B922A952A831203131211C5
:10053000642B1E08333A0319812A642B8312031398
:1005400012150A168A11C3210A128A110A128A1573
:1005500058260A128A1183160317A6000630831242
:100560000313D0001330CF00AD30CE00CE0BB62A2F
:10057000CF0BB62AD00BB62A952A83120313121575
:100580000A168A11C3210A128A110A168A119424A2
:100590000A128A1183160317A600AE2A83120313C8
:1005A00012150A168A11C3210A128A110A128A1117
:1005B000EB260A128A1183160317A6000A168A115F
:1005C000C3210A128A117A30F6009030F700803089
:1005D000F8000A168A119B230A128A112730831207
:1005E0000313D0000D30CF002530CE00CE0BF62AFD
:1005F000CF0BF62AD00BF62AFD2A0A168A11C32140
:100600000A128A11952A831203131215322B023013
:1006100083160317A6000A168A11C3210A128A112B
:10062000F2010C300A168A115E240A128A112B2A52
:1006300083160317A6010A168A11C3210A128A110A
:10064000F2010C300A168A115E240A128A11A530B2
:1006500083120313CE00CE0B2B2B2E2B83120313EE
:1006600012114D2A0A128A1519230A128A11233AE5
:100670000319182B103A0319072B652A0A128A1539
:10068000B1240A128A11023083160317A6005530CE
:10069000A200642B2608003A03190C2A013A031918
:1006A000522A033A03196A2A103A0319BD2A013A59
:1006B0000319CE2A073A0319032B013A03193E2BDB
:1006C000733A03199E2A642B223083160317A20063
:1006D000BE280A128A110C28831203133108BB00AA
:1006E0008030BB053108B2003207C200B01F792B41
:1006F0007A2B7B2B4214420803197F2B802B902BE3
:10070000420A031D842B852B8D2B0030B100003055
:10071000B0000030AF000030AE00B017B101982B30
:100720000030B1000030B0000030AF000030AE004B
:100730002D088039BB062D08B2003207C300AC1F5C
:10074000A22BA32BA42B431443080319A82BA92BDA
:10075000B92B430A031DAD2BAE2BB62B0030AD00D9
:100760000030AC000030AB000030AA00AC17AD0187
:10077000C12B0030AD000030AC000030AB000030C9
:10078000AA002D082C042B042A04031DC82BC92BF6
:10079000E02B0030B1000030B0000030AF0000307E
:1007A000AE008030B0047F30B1043B08B1043108A2
:1007B000AD003008AC002F08AB002E08AA00352D84
:1007C0004208031DE42BE52BEE2B0030AD0000307A
:1007D000AC000030AB000030AA00352D4208B2005A
:1007E000B3013308B50043083202B400031CB5035B
:1007F00034087F3EBC0035080318013E003EBD00B2
:100800003108BA003008B9002F08B8002E08B70028
:100810000030B1000030B0000030AF000030AE005A
:100820000030C1000030C0000030BF000030BE000A
:10083000C301622C430803191E2C1F2C3F2C0130CE
:10084000B2000310B70DB80DB90DBA0DB20B212CC3
:100850000130B2000310AE0DAF0DB00DB10DB20BF3
:100860002A2CC11F342C352C362C2E140130B2000A
:100870000310BE0DBF0DC00DC10DB20B382C2D08DD
:100880003A02031D4D2C2C083902031D4D2C2B0858
:100890003802031D4D2C2A083702031C502C512C02
:1008A000602C41172A08B7022B08031C2B0FB80233
:1008B0002C08031C2C0FB9022D08031C2D0FBA02A3
:1008C0000130C3071A304302031C672C682C1A2C12
:1008D0003A0839043804370403196F2C702C8F2C14
:1008E0003E148F2C0130B2000310AE0DAF0DB00DD1
:1008F000B10DB20B742CC11F7E2C7F2C802C2E14BA
:100900000130B2000310BE0DBF0DC00DC10DB20B02
:10091000822CFF30BC070318BD0AFF30BD07B01F93
:10092000922C932C722CC301C11F972C982CB42CA1
:10093000FF303E05B200FF303F05B300FF304005F9
:10094000B4007F304105B500350834043304320467
:100950000319AB2CAC2CAF2C0130C300B42C2E1CD3
:10096000B22CB32CB42CAC2C43080319B82CB92CE2
:10097000EA2C0130AE07003003180130AF07003019
:1009800003180130B007003003180130B107311CE3
:10099000CA2CCB2CEA2C2E08B2002F08B30030084A
:1009A000B4003108B5000130B600350DB50CB40CFB
:1009B000B30CB20CB60BD52C3508B1003408B0001E
:1009C0003308AF003208AE000130BC070318BD0A7F
:1009D0000030BD073D08803AFF0080307F02031DD4
:1009E000F32CFF303C02031CF62CF72C052DFF30B6
:1009F00083120313BC000030BD000030B100003092
:100A0000B0000030AF000030AE00831203133D0889
:100A1000803AFF0080307F02031D102D01303C0220
:100A20000318132D142D212D83120313BC01BD01B6
:100A30000030B1000030B0000030AF000030AE0038
:100A4000BB01831203133C08C200421C282D292D30
:100A50002B2DB0172D2D7F30B0054208B2000310AA
:100A6000320CB1003B08B104D72B080083120313EA
:100A7000AA0011302206031D3E2D3F2D4E2DD4011C
:100A80000330D50083160313C601C701C801C9018D
:100A90003F3083120313AA000530D80037302A06EE
:100AA000031D532D542D702D043054020318592D5D
:100AB0005A2D702D5408C43EA0002A300A168A11FF
:100AC0001E220A128A11831203135408C63E8400A0
:100AD0003130831380000130D4070530D8008E2DCB
:100AE0002F302A06031D752D762D8E2D04305402CD
:100AF00003187B2D7C2D8E2D5408C43EA0002A3077
:100B00000A168A111E220A128A118312031354082C
:100B1000C63E84003030831380006B2D5808031DBF
:100B2000922D932D952D3330EA2E04305406031D5B
:100B30009A2D9B2DEA2EAB01AC01831203132B08D7
:100B4000263E84002B080A168A1145230A128A11B0
:100B500083138000013083120313AB070318AC0A20
:100B60000030AC072C08803AFF0080307F02031D64
:100B7000BB2D04302B02031CBE2DBF2D9D2DC63076
:100B8000F2002630F3000430F4000030F5000A16BD
:100B90008A1185250A128A1172087304031DD12D4A
:100BA000D22D002E0A168A11C3210A128A11F201CF
:100BB0000C300A168A115E240A128A11A53083129B
:100BC0000313A300A30BE22DE52DF030F6009030C7
:100BD000F7008130F8000A168A119B230A128A1145
:100BE0004D3083120313A5001930A4004F30A30029
:100BF000A30BF82DA40BF82DA50BF82D4430EA2EED
:100C0000013083120313D5025508031D082E092E47
:100C1000802E0A168A11C3210A128A11F2010C30A1
:100C20000A168A115E240A128A11A5308312031350
:100C3000A300A30B192E1C2E5A30F6009030F7009B
:100C40008030F8000A168A119B230A128A1152304A
:100C5000F6009130F700C030F8000A168A119B2385
:100C60000A128A117330F6009130F700CC30F80088
:100C70000A168A119B230A128A113C30831203132D
:100C8000D900762EC930A0000A30F2000030F300FF
:100C90005908A300A4012308F4002408F5000A164B
:100CA0008A113A270A128A117208303E0A168A11EE
:100CB0001E220A128A11CA3083120313A0000A30BE
:100CC000F2000030F3005908A300A4012308F40047
:100CD0002408F5000A168A1124260A128A117208BD
:100CE000303E0A168A111E220A128A118312031339
:100CF0005908031D7C2E7D2E422E0330D500C22EB6
:100D00000A168A11C3210A128A11F2010C300A163E
:100D10008A115E240A128A11A53083120313A300DC
:100D2000A30B902E932E8A30F6009030F70080307F
:100D3000F8000A168A119B230A128A11C030831206
:100D40000313A0005508303E0A168A111E220A120B
:100D50008A11D430F6009030F700C330F8000A163C
:100D60008A119B230A128A114D3083120313A500A6
:100D70001930A4004F30A300A30BBC2EA40BBC2E33
:100D8000A50BBC2E0A168A11C3210A128A11B7308C
:100D9000F6009030F7008130F8000A168A119B2384
:100DA0000A128A11F201C4300A168A115E240A124C
:100DB0008A11F2010F300A168A115E240A128A1172
:100DC000A53083120313A300A30BE42EE72E831296
:100DD0000313D4010800053083120313D80056080A
:100DE000031DF32EF42EA82F0630F8001330F70061
:100DF000AD30F600F60BFA2EF70BFA2EF80BFA2EA2
:100E0000012F0830F8009D30F7000530F600F60B92
:100E1000072FF70B072FF80B072F0E2F1530F300B6
:100E20009030F4000A168A11CA220A128A1183121B
:100E30000313BB019A2F0A30F200831203133B08FD
:100E40000A168A11F8210A128A11053E8312031329
:100E5000B400BC013C08203E84003C0834070A165C
:100E60008A1145230A128A118313800001308312EC
:100E70000313BC070A303C02031C3F2F402F2A2FCC
:100E8000AA012008AB002108AC003A30AD002208CE
:100E9000AE002308AF003A30B0002408B1002508A6
:100EA000B200B3012608B5002708B600B70128082C
:100EB000B8002908B900BA013B08303E0A168A1565
:100EC000EA270A128A1120300A168A15EA270A121E
:100ED0008A112B30F3000030F4000A168A11CA225E
:100EE0000A128A1120300A168A15EA270A128A1174
:100EF0003530F3000030F4000A168A11CA220A12B3
:100F00008A1120300A168A15EA270A128A11383007
:100F1000F3000030F4000A168A11CA220A128A115C
:100F20000A300A168A15EA270A128A11013083123A
:100F30000313BB073B08FF00831603132A08031D96
:100F4000A32F29087F02031CA62FA72F1B2FB12F29
:100F5000C630F3009030F4000A168A11CA220A1231
:100F60008A110230080002300A168A111A230A1266
:100F70008A1183160313A00001300A168A111A235E
:100F80000A128A1183160313A10000300A168A116F
:100F90001A230A128A1183160313A2002008F600EE
:100FA00004300310F60CFF3E031DD12F76080339E1
:100FB000303EB80020080F39303EB9002108F60055
:100FC00004300310F60CFF3E031DE12F76080739AD
:100FD000303EBA0021080F39303EBB002208F6002F
:100FE00004300310F60CFF3E031DF12F760807397D
:100FF000303EBC0022080F39303EBD00BE01080063
:101006003F34003083120313A4000030A3000030E5
:10101600A2000030A1007508740473047204031959
:101026001528162861280130A50024280130A000C3
:101036000310F20DF30DF40DF50DA00B1B28013076
:10104600A507F51F2728282819280130A000031016
:10105600A10DA20DA30DA40DA00B2A2875087902D7
:10106600031D3F2874087802031D3F287308770282
:10107600031D3F2872087602031C42284328522883
:101086007208F6027308031C730FF7027408031C38
:10109600740FF8027508031C750FF902211401304C
:1010A6000310F50CF40CF30CF20CFF3E031D532851
:1010B6000130A502031D6028612828282408F500B0
:1010C6002308F4002208F3002108F20008000310A8
:1010D60083120313460D470DCD004D08031D7428DA
:1010E60075287E280030C7000030C6000030C500D5
:1010F6000030C400DF284408C8004508C900460877
:10110600CA004708CB001F300310CB0CCA0CC90C11
:10111600C80CFF3E031D87284808CC00C617FF30C1
:10112600C405FF30C505FF30C6050030C70596303B
:10113600CD02CD1F9F28A028B8284D08803A973E9B
:101146000318A628A728A828752801300310C70C5D
:10115600C60CC50CC40CFF3E031DA9280130CD07E3
:10116600031DB628B728A828CF2820304D02031C17
:10117600BD28BE28CA2875280130C8000310C40D32
:10118600C50DC60DC70DC80BC1280130CD024D08CF
:10119600031DCE28CF28BF284C080319D328D428EE
:1011A600DF28C409C509C609C709C40A0319C50A3F
:1011B6000319C60A0319C70A080083120313A400F9
:1011C60024080319E728E828FC28F91FEB28EC284F
:1011D600FC287609A6007709A7007809A8007909EE
:1011E600A900A60A0319A70A0319A80A0319A90A36
:1011F60004297908A9007808A8007708A7007608C6
:10120600A6007908780477047604031D0B290C29B7
:1012160015290030F9000030F8000030F7000030E2
:10122600F60095299630A50023290130A50701303F
:101236000310A90CA80CA70CA60CFF3E031D1B2926
:10124600FE302905031D282929291829432901309B
:10125600A5070130A607003003180130A7070030A4
:1012660003180130A807003003180130A907013020
:101276000310A90CA80CA70CA60CFF3E031D3B29C6
:10128600FF302905031D482949292A2955290130F6
:10129600A5020130A0000310A60DA70DA80DA90DEB
:1012A600A00B4E29A81B582959295F29023025026F
:1012B60003185E295F294A292518622963296B29A3
:1012C600FF30A605FF30A7057F30A805FF30A9052A
:1012D6000310A50C2508A000A101A201A301183046
:1012E6000310A00DA10DA20DA30DFF3E031D732932
:1012F6002008A6042108A7042208A8042308A90494
:1013060024080319872988298D29F91F8B298C29F7
:101316008D29A9172908F9002808F8002708F700D9
:101326002608F600080083120313A700553022068C
:10133600031D9E299F29B029D7010530D8008316A1
:101346000313A501A601AC013F3083120313DA0093
:1013560083160313AB010230182B37302706031907
:10136600B529B629BC292F302706031DBB29BC2960
:101376005B2A0530D80027085A06031DC329C4294D
:101386004C2A013083160313A5070318A60A00305A
:10139600A60700302602153003192502031CD4299E
:1013A600D529A42A3730831203132706031DDC2907
:1013B600DD291D2A013083160313AC000430831285
:1013C6000313A5003D30A400A40BE729A50BE729CC
:1013D6000A2A23088400663083178000A42A23087B
:1013E6008400123083178000A42A23088400133057
:1013F60083178000A42A23088400143083178000F2
:10140600A42A23088400153083178000A42A831297
:1014160003135708003A0319EC29013A0319F22974
:10142600033A0319F829013A0319FE29073A031961
:10143600042A5A2A2F302706031D222A232A5A2A2B
:10144600013083160313AC000A168A11C3210A124F
:101456008A153230F6009130F7008230F8000A160D
:101466008A119B230A128A15333083120313A600AE
:10147600BB30A500DF30A400A40B3F2AA50B3F2AF2
:10148600A60B3F2A0A168A11C3210A128A1533307F
:10149600182B013083160313A5000030A600831213
:1014A60003132708DA0083160313AB01A42AA42A20
:1014B6003F305A060319602A612A992A003083169A
:1014C6000313260215300319250203186B2A6C2A0A
:1014D600992A2C08031D702A712A992A37308312FB
:1014E60003135A06031D782A792A862A57080319F0
:1014F6007D2A7E2A862A0130D7020A168A11C3213E
:101506000A128A15952A2F305A06031D8B2A8C2A11
:10151600952A043057020318912A922A952A0130F7
:10152600D707802A013083160313AB0083160313F3
:10153600A501A6013F3083120313DA0083160313B5
:10154600AC01043083125706031DAA2AAB2ADE2AF1
:10155600C030A0002A300A168A111E220A128A15E5
:10156600831203135708A4002407D43E8400831370
:101576000008F600840A00088403F7008230F800A9
:101586000A168A119B230A128A1583120313570817
:10159600A4002407D63E840083130008F600840ABC
:1015A60000088403F700C230F8000A168A119B234C
:1015B6000A128A15102B8030A0002A300A168A11CA
:1015C6001E220A128A15831203135708A400240741
:1015D600D63E840083130008F600840A00088403BC
:1015E600F7008230F8000A168A119B230A128A1520
:1015F600831203135708A4002407D83E84008313DC
:101606000008F600840A00088403F700C230F800D8
:101616000A168A119B230A128A1583120313580885
:10162600031D162B172BAE294A2A08008312031313
:10163600A5010A168A11C3210A128A159930F600E5
:101646009030F7008030F8000A168A119B230A12A0
:101656008A15F2010F300A168A115E240A128A15BB
:10166600F201C4300A168A115E240A128A15013064
:101676000A168A11F0220A128A1583120313A80089
:10168600033083120313A4008A30A3005530A2004E
:10169600A20B4B2BA30B4B2BA40B4B2B831203132D
:1016A6005808031D572B582B5A2B3330B02C0530B6
:1016B600D80037302806031D612B622B7C2B0430A3
:1016C60053020318672B682B7C2B5308C43EA000DB
:1016D6002A300A168A111E220A128A158312031349
:1016E6005308C23E84003130831380000130D30793
:1016F6009A2B2F302806031D812B822B9A2B043020
:1017060053020318872B882B9A2B5308C43EA0003C
:101716002A300A168A111E220A128A158312031308
:101726005308C23E8400303083138000792B043086
:101736005306031D9F2BA02B3A2B0A168A11C32191
:101746000A128A15E230F6009030F7008030F80071
:101756000A168A119B230A128A15F2010F300A16FD
:101766008A115E240A128A15F201C4300A168A11F9
:101776005E240A128A1583120313D2010F2C01303C
:101786000A168A11F0220A128A1583120313A80078
:10179600033083120313A4008A30A3005530A2003D
:1017A600A20BD32BA30BD32BA40BD32B3730831233
:1017B60003132806031DE02BE12BF72B5208C43E2A
:1017C600A0002A300A168A111E220A128A158312CE
:1017D60003135208BE3E840031308313800001306B
:1017E600D2070530D8000F2C2F302806031DFC2BFE
:1017F600FD2B0F2C5208C43EA0002A300A168A116F
:101806001E220A128A15831203135208BE3E840052
:10181600303083138000F22B04305202031C142C48
:10182600152CC22BC230F200BE30F3000430F40097
:101836000030F5000A168A1185250A128A157208E3
:101846007304031D272C282C7B2C0A168A11C3210E
:101856000A128A15F2010C300A168A115E240A123F
:101866008A152730F6009030F7008030F8000A1607
:101876008A119B230A128A15333083120313A4009C
:10188600BB30A300DF30A200A20B472CA30B472CD2
:10189600A40B472C83120313A601A701831203137B
:1018A6002608C23E840083130008F3002608250795
:1018B6000A168A114C220A128A1501308312031362
:1018C600A6070318A70A0030A7072708803AFF00D3
:1018D60080307F02031D712C04302602031C742CF9
:1018E600752C512C83120313D301D2012330B02C53
:1018F6000A168A11C3210A128A15F2010C300A1639
:101906008A115E240A128A156A30F6009030F700B2
:101916008030F8000A168A119B230A128A156D3048
:10192600F6009130F700C530F8000A168A119B239D
:101936000A128A15333083120313A400BB30A300A6
:10194600DF30A200A20BA52CA30BA52CA40BA52C63
:1019560083120313D301D201582B080002308312DD
:101966000313B100A601A801A901A70102300A16B6
:101976008A111A230A128A1583120313AA00013048
:101986000A168A111A230A128A1583120313AB0048
:1019960000300A168A111A230A128A1583120313B3
:1019A600AC000A168A11C3210A128A153E30F600C7
:1019B6009130F7008030F8000A168A119B230A122C
:1019C6008A158312031327080319EA2CEC2C01301D
:1019D600ED2C0030A700B20103303202031CF42CB8
:1019E600F52CF62C5F2D0330F20032080A168A1108
:1019F600F8210A128A1583120313AF003208310642
:101A0600031D062D072D212D270803190B2D0C2D3F
:101A1600212D2F08C03EA00020300A168A111E2252
:101A26000A128A15831203132F08C13EA000203024
:101A36000A168A111E220A128A15492D2F08C03E3F
:101A4600A00032082A3E840083130008A200043056
:101A56000310A20CFF3E031D2B2D22080F39303E2A
:101A66000A168A111E220A128A15831203132F08D8
:101A7600C13EA00032082A3E8400831300080F39B5
:101A8600303E0A168A111E220A128A150230831265
:101A9600031332020318502D512D5A2D2F08C23E22
:101AA600A0003A300A168A111E220A128A1501303F
:101AB60083120313B207EF2C00300A168A11F022A4
:101AC6000A128A1583120313AD0037302D06031D43
:101AD6006D2D6E2DB82D0130A8070318A90A003008
:101AE600A907003029020B3003192802031C7C2D9C
:101AF6007D2D262E2A08F30002300A168A116A2244
:101B06000A128A15831203132B08F30001300A16F2
:101B16008A116A220A128A15831203132C08F3000B
:101B260000300A168A116A220A128A150A168A11C2
:101B3600C3210A128A154930F6009030F70080302A
:101B4600F8000A168A119B230A128A15333083126B
:101B56000313A400BB30A300DF30A200A20BB12DFB
:101B6600A30BB12DA40BB12D572E3F302D06031D0F
:101B7600BD2DBE2D262E37302606031DC32DC42DA2
:101B8600262E280829040319C92DCA2D242E003013
:101B960029020B30031928020318D22DD32D242E27
:101BA60031082A3E840083130008A5002508A200F8
:101BB60004300310A20CFF3E031DDC2D2208B000EA
:101BC6000F30B0052508AE000F30AE050130AE0768
:101BD6000A302E02031CF02DF12DF42DAE0101303A
:101BE600B0073108031DF82DF92D0E2E03303002F3
:101BF6000318FE2DFF2D0B2E02303006031D042E7A
:101C0600052E152E04302E02031C0A2E0B2E152E21
:101C1600B001AE01152E06303002031C132E142E11
:101C2600152E0B2E31082A3E84003008A200033000
:101C36000310A20DFF3E031D1B2E0310220D2E04C2
:101C46008000A801A9012F302D06031D2B2E2C2E56
:101C5600462E2F3026060319312E322E462E0330FD
:101C6600F2000030F3003108013EF40000300318A2
:101C76000130F5000A168A1124260A128A157208FE
:101C860083120313B1002D08A60006308312031336
:101C9600A4001330A300AD30A200A20B502EA30B5C
:101CA600502EA40B502EE42C080083120313C601F9
:101CB600C301C4015608031D612E622EDB2F0630B8
:101CC60083120313A4001330A300AD30A200A20BAD
:101CD6006A2EA30B6A2EA40B6A2E083083120313F6
:101CE600A4009D30A3000530A200A20B782EA30B02
:101CF600782EA40B782E0A30F200831203134608BE
:101D06000A168A11F8210A128A15053E8312031350
:101D1600B900C5014508253E8400450839070A165D
:101D26008A1145230A128A15831380000130831213
:101D36000313C5070A304502031CA22EA32E8D2EBF
:101D4600AF012508B0002608B1003A30B2002708D6
:101D5600B3002808B4003A30B5002908B6002A08AE
:101D6600B700B8012B08BA002C08BB00BC012D082F
:101D7600BD002E08BE00BF010A168A11C3210A1231
:101D86008A153830F6009030F7008030F8000A16D1
:101D96008A119B230A128A15C03083120313A000EE
:101DA6004608303E0A168A111E220A128A1530305B
:101DB600F6000030F700C230F8000A168A119B239D
:101DC6000A128A153A30F6000030F700CB30F800D8
:101DD6000A168A119B230A128A153D30F600003036
:101DE600F700CE30F8000A168A119B230A128A15CC
:101DF60083120313C101C201C301C40100300A16D4
:101E06008A11F0220A128A1583120313C000373092
:101E16004006031D0F2F102F432F0530D800013029
:101E2600C1070318C20A0030C20703308312031326
:101E3600A4008A30A3005530A200A20B202FA30BCA
:101E4600202FA40B202F00308312031342021530DB
:101E560003194102031C302F312F752F0A168A11E0
:101E6600C3210A128A1500300A168A11F0220A12B4
:101E76008A153F3A031D402F412F362F0230FF2F80
:101E8600410842040319482F492F752F003042029A
:101E96001530031941020318512F522F752F0530A3
:101EA600D800831603132908FF3E83120313A200EA
:101EB600831603132A080318013EFF3E83120313F9
:101EC600A3004608FF002308031D6B2F22087F028C
:101ED600031C6E2F6F2F712FC6017E2E4608013E02
:101EE600C6007E2E2F304006031D7A2F7B2FC12F72
:101EF6000130C3070318C40A0030C4070330831235
:101F06000313A4008A30A3005530A200A20B892F28
:101F1600A30B892FA40B892F0030831203134402CD
:101F2600153003194302031C992F9A2F012F0530F0
:101F3600D8000A168A11C3210A128A153230F60011
:101F46009130F7008230F8000A168A119B230A1294
:101F56008A15333083120313A400BB30A300DF308D
:101F6600A200A20BB42FA30BB42FA40BB42F0A16F6
:101F76008A11C3210A128A150030FF2F4308440430
:101F86000319C62FC72F012F00304402153003193D
:101F960043020318CF2FD02F012F0530D800460853
:101FA600031DD62FD72FD82F6F2F0130C6027E2EB6
:101FB6000A168A11C3210A128A150C30F6009130CE
:101FC600F7008130F8000A168A119B230A128A1537
:101FD6004D3083120313A4001930A3004F30A20022
:101FE600A20BF32FA30BF32FA40BF32F0A168A11C0
:101FF600C3210A128A15412F080043344134523452
:10200600203442344C34413443344B34203442344B
:102016004F34583420344C344F34473453340A3414
:102026000D34003423342034543449344D3445348B
:1020360020342034203420342034453420342034D5
:10204600533450340A340034503441345334533406
:1020560057344F34523444342034433448344134B2
:102066004E34473445344434003423342034543415
:1020760049344D344534203420342034203420343F
:1020860045342034203453345034003454346934C5
:102096006D34653420345334653474342034533409
:1020A60075346334633465347334733400345934AB
:1020B6004F3455342034413452344534203442347C
:1020C6004C344F3443344B34453444340034503468
:1020D60041345334533457344F3452344434203417
:1020E60044344F3420344E344F34543400344C345A
:1020F6004F3447345334203444344F3457344E34F9
:102106004C344F3441344434453444340034573429
:1021160052344F344E3447342034503441345334DF
:10212600533457344F3452344434003445344E34E7
:1021360054344534523420344E34453457342034E4
:10214600503441345334533400344E344F342034F5
:102156004C344F344734203450345234453453349D
:1021660045344E345434003445344E3454344534B6
:1021760052342034503441345334533457344F346A
:102186005234443400344E344F3420344C344F34BB
:102196004734203446344F3455344E3444340A34AC
:1021A600003441345434543445344D34503454346A
:1021B60020344C34453446345434203400345234BC
:1021C60045342D3445344E34543445345234203459
:1021D600503441345334533400344C344F34473440
:1021E60049344E342034533455344334433445341F
:1021F6005334533400344334683461346E346734B2
:102206006534203470346134733473347734643411
:1022160000344E344F3420344C344F344734203459
:1022260046344F3455344E344434003444346F34D9
:1022360077346E346C346F346134643420344C3407
:102246006F34673400344C344F34473420344334CD
:102256004C344534413452344534443400344C34DF
:102266004F344734473449344E34473420344F349E
:10227600553454340034533465347434203454346F
:1022860069346D3465343A34003443346C3465341F
:102296006134723420344C346F346734003457342C
:1022A600413449345434203446344F3452340034A3
:1022B6005334653474342034743469346D3465347D
:1022C6000034563469346534773420344C346F34F2
:1022D600673400344D344134543443344834003484
:1022E6005334653463347334003431343034313428
:1022F6003034003447343134003447343234003417
:1023060047343334003447343434003447344E349D
:10231600003443344F340034473452340034FF1B06
:102326009C2983137F1883170008840A0319FF0A60
:1023360008007F087F398A000408840A0319FF0A07
:02234600820013
:10235200831603131419AE29AF29A92911081F39AD
:10236200031DB429B529A9290800831203131214E5
:102372009214FA308316031392008C1483120313FF
:1023820012110800F20101300A168A115E240A169F
:102392008A110430F7003D30F600F60BCE29F70B18
:1023A200CE29D329080000300A168A111A230A16E8
:1023B2008A11F6007F30F6057608F30000300A161F
:1023C2008A116A220A168A110800831203131F1542
:1023D2001F19EC29ED29E9291E08F50083160313BC
:1023E2001E08F4007508F3007408F2000800F400F7
:1023F200F301741CFD29FE29002A7208F307031059
:10240200F20D0310F40C7408031D082A092AFA2994
:10241200730808007E088A007F0882000A168A1163
:102422000B220A168A118000840A04087D06031909
:102432000034FF0A0319FE0A0F2A83120313A100B4
:10244200F20120080A168A115E240A168A11F20184
:10245200F20A8312031321080A168A115E240A164D
:102462008A110800893491348F3491347D34913447
:102472008034913483349134863491346434913489
:102482004834913419349134FE3490345B349134AD
:102492004F344E340034F4000A168A15C2270A1645
:1024A2008A11A0300A168A15D4270A168A117408CE
:1024B2000A168A15D4270A168A1173080A168A156B
:1024C200D4270A168A110A168A15CB270A168A11E8
:1024D2000800F4000A168A15C2270A168A11D0309B
:1024E2000A168A15D4270A168A1174080A168A153A
:1024F200D4270A168A1173080A168A15D4270A16CF
:102502008A110A168A15CB270A168A110800F200C8
:102512000A168A11A9210A168A1183160313911524
:102522000A168A11A9210A168A11831203131308A3
:10253200F3007203031D9E2A9F2AA32A8316031304
:102542009116A62A83160313911211167308080016
:102552007208F7007408F6007308F500F30A03190D
:10256200F40A760883120313FF00750884000A1622
:102572008A1192210A168A11FF007708F70A84004D
:102582007F08831780000008031DC82AC92AAB2AC6
:102592000800DF2A7408FF00730884000A168A11F3
:1025A20092210A168A110A168A15EA270A168A1130
:1025B2000130F3070318F40A0030F4077408831299
:1025C2000313FF00730884000A168A1192210A1667
:1025D2008A11003A031DEE2AEF2ACB2A0800F300E3
:1025E2007308031DF52AF62AFB2A83120313060831
:1025F2003F39192B3F30831203130605F2003F3097
:1026020072060319052B062B0D2B7B0803190A2BC7
:102612000B2B0D2BFB01F62A3F300605F2003F3053
:102622007206031D152B162B182B0130FB003F30B1
:102632000800F4000A168A15C2270A168A11D03039
:102642000A168A15D4270A168A1174080A168A15D8
:10265200D4270A168A110A168A15DF270A168A1142
:10266200D1300A168A15D4270A168A1100300A16A2
:102672008A1188220A168A11F5000A168A15CB27B2
:102682000A168A1175080800F4000A168A15C2276C
:102692000A168A11A0300A168A15D4270A168A1138
:1026A20074080A168A15D4270A168A110A168A1578
:1026B200DF270A168A11A1300A168A15D4270A16AC
:1026C2008A1100300A168A1188220A168A11F50028
:1026D2000A168A15CB270A168A1175080800F70010
:1026E2008A2B7608FF00750884000A168A11922147
:1026F2000A168A11F30077080A168A114C220A1662
:102702008A110130F7070130F5070318F60A003085
:10271200F607760883120313FF00750884000A1671
:102722008A1192210A168A11003A031D992B9A2BBB
:10273200722B0800F20178080A168A115E240A1622
:102742008A11B92BF201F20A7708FF007608840099
:102752000A168A1192210A168A110A168A115E2411
:102762000A168A110130F6070318F70A0030F70734
:10277200770883120313FF00760884000A168A1171
:1027820092210A168A11003A031DC82BC92BA32BCA
:10279200080083120313981718162608AA002708A0
:1027A200AB002808AC002908AD0004300310AA0DC4
:1027B200AB0DAC0DAD0DFF3E031DD72B2D08F50063
:1027C2002C08F4002B08F3002A08F2000130F9006B
:1027D2003130F8002D30F7000030F6000A128A1569
:1027E20004200A168A117208FF3E83160313990009
:1027F2000800831203138C1CFF2B002C252C0130A4
:1028020083160313A3070318A40A0030A407E230B7
:102812002306043003192406031D102C112C232C2B
:10282200A301A4018312031359080319192C1A2CAA
:102832001C2C0130D90258080319202C212C232CDE
:102842000130D80283128C1071088A00700E830046
:10285200FE0E7E0E09008312031394152608AA00A9
:102862002708AB002808AC002908AD00023003108D
:10287200AA0DAB0DAC0DAD0DFF3E031D382C2D087E
:10288200F5002C08F4002B08F3002A08F2000130AE
:10289200F9003130F8002D30F7000030F6000A124E
:1028A2008A1504200A168A117208FF3E8316031342
:1028B20093008312031394160800F5007218622C19
:1028C200662C831203130915692C83120313091151
:1028D2007508F03988008914A630F300F30B6F2CC9
:1028E200000083120313891075080F39F3000330B7
:1028F2000310F30DFF3E031D792C0310730D8800A6
:102902008914A630F300F30B842C00008312031306
:1029120089101B30F4009E30F300F30B8E2CF40B65
:102922008E2C00000800831203135608031D9A2CF4
:102932009B2CBE2C0130D6002630F6009130F700D9
:102942008230F8000A168A119B230A168A111A305D
:1029520083120313A2005E30A1006D30A000A00B11
:10296200B02CA10BB02CA20BB02CB72C0A168A11DA
:10297200C3210A168A110230CA2CA830F600903000
:10298200F7008030F8000A168A119B230A168A1172
:10299200A82C08000A30F2007A080A168A11F821D7
:1029A2000A168A11053EF800AD30F5000030F60037
:1029B20078080A168A1170230A168A110A30F20060
:1029C2000030F3007A08013EF400003003180130B1
:1029D200F5000A168A1124260A168A117208FA00CC
:1029E2000030831603132A020A300319290203183E
:1029F200FB2CFC2C022D0130A9070318AA0A003077
:102A0200AA0708007208F900262D0130F5020030ED
:102A1200031CF603F6027408F8007308F700F30AC1
:102A22000319F40A770884008317781C83130008BB
:102A3200FF007908F90A84007F08831380000008E8
:102A4200031D242D252D262D332D75087604031DF7
:102A52002B2D2C2D062D332D790884008313800114
:102A62000130F9070130F5020030031CF603F602CB
:102A7200750A031D402D760A031D402D412D2D2D73
:102A820008000A168A15F5270A168A110A168A15E7
:102A9200B3270A168A110A168A15AD270A168A1151
:102AA200003083120313A9000130A8008630A7006A
:102AB200A030A6000A168A112C240A168A110A16B8
:102AC2008A11D4210A168A110A168A11B6210A1607
:102AD2008A11003083120313A9000030A8002530A8
:102AE200A7008030A6000A168A11CA230A168A1184
:102AF2000030F3009030F4000A168A11CA220A1636
:102B02008A110B178B1708000130F4020030031CE6
:102B1200F503F502740A031D922D750A031D922D09
:102B2200932DA02DF201F301CF2D0130F2070130D8
:102B3200F3070130F4020030031CF503F5027208BA
:102B42008400831300080319A72DA82DC12D730833
:102B5200840000080319AE2DAF2DC12D7408750431
:102B62000319B42DB52DC12D730884000008F60099
:102B720072088400000876060319C02DC12D962D17
:102B8200730884000008F600720884000008F70049
:102B920076087702F200F301031CF30308003A30CF
:102BA200F6009030F7008230F8000A168A119B2353
:102BB2000A168A110A168A11D8260A168A1183124F
:102BC20003132208F6000130F700CB30F8000A1692
:102BD2008A119B230A168A11CE3083120313A00096
:102BE2000A30F2000030F3002308A400A5012408F3
:102BF200F4002508F5000A168A113A270A168A11E6
:102C02007208303E0A168A111E220A168A11CF3025
:102C120083120313A0000A30F2000030F3002308ED
:102C2200A400A5012408F4002508F5000A168A115B
:102C320024260A168A117208303E0A168A111E22AA
:102C42000A168A110800F701F51F282E292E302EA8
:102C5200F409F509F40A0319F50A0130F700F31F24
:102C6200332E342E392EF209F309F20A0319F30A2C
:102C72007208730403193E2E3F2E6C2E0130F600AB
:102C82004B2E01300310F20DF30DFF3E031D432EB8
:102C92000130F607F31F4E2E4F2E422E7308750297
:102CA200031D552E72087402031C582E592E5F2ED6
:102CB2007208F4027308031CF503F50201300310D5
:102CC200F30CF20CFF3E031D602E0130F602031DD1
:102CD2006B2E6C2E4F2E77080319702E712E762EC6
:102CE200F409F509F40A0319F50A7508F3007408E2
:102CF200F20008000A128A11B3270A168A118312F7
:102D02000313D601AD30F200B830F3000030F40006
:102D12000630F5000030F6000A168A1103250A165D
:102D22008A11B330F200831203132008F30001303A
:102D3200F4000230F5000030F6000A168A1103256D
:102D42000A168A110A30F2000030F30083120313CC
:102D52002108A200A3012208F4002308F5000A16A4
:102D62008A113A270A168A117208303E8316031313
:102D7200B5000A30F2000030F30083120313210879
:102D8200A200A3012208F4002308F5000A168A1102
:102D920024260A168A117208303E83160313B600DF
:102DA200B7010A168A11CB240A168A1108000A12E0
:102DB2008A11B3270A168A11C23083120313A000A4
:102DC2008316031338080A168A111E220A168A115C
:102DD200C33083120313A0008316031339080A16A3
:102DE2008A111E220A168A11C43083120313A0000C
:102DF2003A300A168A111E220A168A11C530831227
:102E02000313A000831603133A080A168A111E221E
:102E12000A168A11C63083120313A0008316031305
:102E22003B080A168A111E220A168A11C73083121B
:102E32000313A0003A300A168A111E220A168A11BA
:102E4200C83083120313A000831603133C080A162A
:102E52008A111E220A168A11C93083120313A00096
:102E6200831603133D080A168A111E220A168A11B6
:102E72000800F701F31F3E2F3F2F462FF209F309F7
:102E8200F20A0319F30A0130F700F51F492F4A2FFE
:102E9200512FF409F509F40A0319F50A0130F7066E
:102EA200F801F901720873040319582F592F8E2F54
:102EB2000130F600652F01300310F20DF30DFF3ED5
:102EC200031D5D2F0130F607F31F682F692F5C2F5A
:102ED20001300310F80DF90DFF3E031D6A2F730830
:102EE2007502031D762F72087402031C792F7A2F44
:102EF200812F7208F4027308031CF503F50278149B
:102F020001300310F30CF20CFF3E031D822F01303F
:102F1200F602031D8D2F8E2F692F77080319922F2A
:102F2200932F982FF809F909F80A0319F90A790871
:102F3200F3007808F2000800C330F700CD30F60045
:102F4200F60BA12FF70BA12FF20133300A168A11CB
:102F52005E240A168A111B30F7009E30F600F60B2B
:102F6200B02FF70BB02F0000F20133300A168A118E
:102F72005E240A168A11A630F600F60BBE2F000058
:102F8200F20133300A168A115E240A168A11C92FF9
:102F9200CA2F0000F20102300A168A115E240A16B4
:102FA2008A11A630F600F60BD42F0000F201283069
:102FB2000A168A115E240A168A11A630F600F60B4A
:102FC200E02F0000F20101300A168A115E240A166F
:102FD2008A110430F7003D30F600F60BEE2FF70BA6
:102FE200EE2FF32FF2010C300A168A115E240A1614
:0E2FF2008A11A630F600F60BFC2F0000080036
:103F5A008316031306083F388600080083160313E6
:103F6A009F17831203131F14080064008001840A38
:103F7A000406031900340406BB2F0A168A11A92164
:103F8A000A168A1583160313111408000A168A11D1
:103F9A00A9210A168A158316031311150800F200BF
:103FAA000A168A11A9210A168A157208831203139E
:103FBA00930008000A168A15CB270A168A150A16CC
:103FCA008A15C2270A168A150800F2007208831297
:103FDA00031399000C1EF22FF32FEF2F0C12080077
:103FEA00831603138801091189100A168A119D275D
:0E3FFA000A168A150800FF3FFF3FFF3FFF3FFA
:02400E00FB3F76
:00000001FF
