:060000000A128A110C280F
:10000800FE00030EF0000A08F1000A128A15C32D3B
:100018000A128A110F280A128A11FF240A128A1159
:10002800FB0083134B30840062300A128A11F724D4
:100038000A128A11F901FA0183010A128A110F2E94
:10004800733083120313B2000330B3000030B400DE
:100058005430F2000030F300F4000830F5000030AE
:10006800F6000A128A11DE240A128A110A128A1567
:1000780018250A128A112230F6008530F7008030E0
:10008800F8000A128A15F0250A128A11E030F600E3
:100098008530F700C030F8000A128A15F0250A12D8
:1000A8008A11C930F8003A300A128A1550250A1206
:1000B8008A113330F6008530F700D030F8000A1284
:1000C8008A15F0250A128A11A42901300A128A1504
:1000D8007B250A128A1183120313B50023303506D3
:1000E800031D772878287B280130D10031292A3050
:1000F8003506031D8028812896285430F2000030E8
:10010800F300F4000830F5000030F6000A128A11F6
:10011800DE240A128A11033083120313B30000305D
:10012800B4003129350A03199A289B283129B41BB0
:100138009E289F2831290A3035020318A428A528AB
:1001480031293408803AFF0080307F02031DAE2831
:1001580002303302031CB128B2281B29831203136F
:100168005B08D9005A08D8003508AF00B0012F083D
:10017800DA003008DB00FF30B3070318B40AFF3099
:10018800B4077330B2005908F3005808F2000A3077
:10019800F4000030F5000A128A159E250A128A1109
:1001A800831203135A087207AF005B0803185B0A2F
:1001B8007307B0003008803AFF0080307F02031DCB
:1001C800E7283C302F02031CEA28EB283129831248
:1001D8000313DA01DB01D801D9010330B300003081
:1001E800B4001130F6008530F7009030F8000A129C
:1001F8008A15F0250A128A111A3083120313B100E6
:100208005E30B0006D30AF00AF0B0829B00B082985
:10021800B10B08290F290030F6008530F70090301F
:10022800F8000A128A15F0250A128A113129831258
:1002380003135708D5005608D4003508AF00B0019D
:100248002F08D6003008D700FF30B3070318B40AC8
:10025800FF30B4076D30B200312901308312031327
:10026800D00705305002031C3A293B294429D00104
:100278004F08031940294229013043290030CF0093
:100288006D303206031D49294A295B294F08031995
:100298004E294F295B290E30F6008530F700C7300C
:1002A800F8000A128A15F0250A128A116F29C73038
:1002B800F8005408303E0A128A1550250A128A118D
:1002C800C830F800831203135608303E0A128A1504
:1002D80050250A128A11C930F8003A300A128A15D4
:1002E80050250A128A117330831203133206031D34
:1002F8007E297F2990294F08031983298429902969
:100308000E30F6008530F700CA30F8000A128A1558
:10031800F0250A128A11A429CA30F8005808303E7C
:100328000A128A1550250A128A11CB30F800831256
:1003380003135A08303E0A128A1550250A128A11E8
:100348008312031351080319AA29AB2969280A3013
:10035800F20058080A128A1529250A128A118312EE
:100368000313AF003C30F20056080A128A152925FB
:100378000A128A1183120313B0005830F20054088D
:100388000A128A1529250A128A11831203133007C3
:100398002F075A07D300D1010A128A11D6210A124F
:1003A8008A11080083120313AD01A8010A128A15E5
:1003B80018250A128A11831203131215E830F60061
:1003C8008530F7008030F8000A128A15F0250A12E5
:1003D8008A11F02A3C30F2000030F3005308A500DF
:1003E800A6012508F4002608F5000A128A117924C6
:1003F8000A128A11730883120313AA007208A9004B
:100408003C30F2000030F3005308A500A60125088F
:10041800F4002608F5000A128A1546270A128A11DE
:10042800730883120313AC007208AB000A30F200A1
:100438000030F3002A08F5002908F4000A128A158A
:10044800C2260A128A11730883120313D500720890
:10045800D4000A30F2000030F3002A08F500290819
:10046800F4000A128A158A260A128A11730883125E
:100478000313D7007208D6000A30F2000030F300E8
:100488002C08F5002B08F4000A128A15C2260A1255
:100498008A11730883120313D9007208D8000A302E
:1004A800F2000030F3002C08F5002B08F4000A12C3
:1004B8008A158A260A128A11730883120313DB002D
:1004C8007208DA008730F8005408303E0A128A159C
:1004D80050250A128A118830F8008312031356082F
:1004E800303E0A128A1550250A128A118930F800FE
:1004F8003A300A128A1550250A128A118A30F800F1
:10050800831203135808303E0A128A1550250A121E
:100518008A118B30F800831203135A08303E0A12EE
:100528008A1550250A128A110430F6008630F70021
:10053800C030F8000A128A15F0250A128A11F8301C
:10054800F6008530F700C630F8000A128A15F02543
:100558000A128A110A30F6008630F700CC30F8000B
:100568000A128A15F0250A128A11831203132D081C
:10057800031DBF2AC02AC12A071501300A128A158D
:100588007B250A128A1183120313AE0004302E064B
:10059800031DCF2AD02ADC2A2D08031DD42AD52AE8
:1005A800D82A1E30D307F02A12150715AD01F02AF4
:1005B80005302E06031DE12AE22AE72A1211071147
:1005C8000130AD00F02A06302E06031DEC2AED2A74
:1005D800F02A0130A800F72A831203135308031DD9
:1005E800F62AF72AEE2907112808031DFC2AFD2AF6
:1005F8002D2B0A128A1518250A128A11BC30F6000A
:100608008530F700C330F8000A128A15F0250A125F
:100618008A115530F6008530F7009030F8000A123C
:100628008A15F0250A128A118312031387140D30D4
:1006380083120313A700AF30A600B530A500A50BA1
:10064800232BA60B232BA70B232B2A2B8312031355
:1006580087100A128A1518250A128A1120300A12E0
:100668008A1504270A128A11080083120313BE018F
:100678000230BF000030C0005C30F2000030F300F0
:10068800F4000630F5000030F6000A128A11DE2464
:100698000A128A119530F6008530F7008030F8008C
:1006A8000A128A15F0250A128A11F030F6008530F0
:1006B800F700C030F8000A128A15F0250A128A11CC
:1006C8004430F6008530F700D030F8000A128A1559
:1006D800F0250A128A11622C01300A128A157B252C
:1006E8000A128A1183120313C30023304306031D21
:1006F8007E2B7F2B822B0130BE00122C2A30430622
:10070800031D872B882B9D2B5C30F2000030F300F3
:10071800F4000630F5000030F6000A128A11DE24D3
:100728000A128A11023083120313BF000030C0007E
:10073800122C430A0319A12BA22B122C0A304302B4
:100748000318A72BA82B122CC01BAB2BAC2B122CDD
:100758005F08DD005E08DC006108DF006008DE007D
:100768004308B600B7013608E0003708E1005D0825
:10077800F3005C08F2006430F4000030F5000A125F
:100788008A159E250A128A11720883120313B6006D
:100798007308B7005F08F3005E08F2000A30F4003F
:1007A8000030F5000A128A159E250A128A1172086D
:1007B800831203133607B80073080318730A370740
:1007C800B90060083807BA0061080318610A3907D8
:1007D800BB003B08803AFF0080307F02031DF62BE8
:1007E800B5303A02031CF92BFA2B0A2C013083127C
:1007F8000313DC000030DD000830DE000030DF00CD
:10080800E001E1010230BF000030C000FF30831278
:100818000313BF070318C00AFF30C0070130CE0713
:1008280005304E02031C192C1A2C232CCE014D081E
:1008380003191F2C212C0130222C0030CD00C101BE
:10084800C201831203134D08031D2B2C2C2C402CA2
:100858004108B60036075C3E840083130008B700E1
:10086800840A0008B8003708303EBC00380803186E
:10087800013E003EBD00442C2030BC000030BD00CD
:100888004108C83EF8003C080A128A1550250A1289
:100898008A11013083120313C1070318C20A0030FA
:1008A800C2074208803AFF0080307F02031D5E2C99
:1008B80003304102031C612C622C252C8312031384
:1008C8003E080319682C692C702B0A128A11852797
:1008D8000A128A11013A031D722C732C782C0A1201
:1008E8008A1124200A128A11080083120313A10115
:1008F800F31F7F2C802C872CF209F309F20A0319C5
:10090800F30A0130A100F51F8A2C8B2C922CF409D4
:10091800F509F40A0319F50A0130A106A201A30199
:10092800720873040319992C9A2CCF2C0130A0005B
:10093800A62C01300310F20DF30DFF3E031D9E2C73
:100948000130A007F31FA92CAA2C9D2C01300310FD
:10095800A20DA30DFF3E031DAB2C73087502031DEA
:10096800B72C72087402031CBA2CBB2CC22C720858
:10097800F4027308031CF503F50222140130031076
:10098800F30CF20CFF3E031DC32C0130A002031D23
:10099800CE2CCF2CAA2C21080319D32CD42CD92C3B
:1009A800A209A309A20A0319A30A2308F30022082B
:1009B800F20008007208F700E82C77088400730832
:1009C800831380000130F7070130F5020030031C63
:1009D800F603F602750A031DF52C760A031DF52C9D
:1009E800F62CE12C080064008001840A040603192F
:1009F80000340406F82C0134203420342034203408
:100A0800203420342034203420342034203420343E
:100A180020342034203420340034533445344334D3
:100A280053342034533468346F3475346C3464343C
:100A380020343C3420343634303400345334453494
:100A480054342034543449344D34453420343C34FF
:100A58004D344D343A34533453343E3400342A340C
:100A68003A3443344C3445344134523420342034FD
:100A78002034233445344E3454344534523400340D
:100A88002A343A3443344C344534413452342034D3
:100A9800203423343A3445344E34543445345234B3
:100AA8000034203445346E346A346F347934203459
:100AB80079346F347534723420346D34653461346C
:100AC8006C34003431342E344D3469346334723428
:100AD8006F34203432342E344734723469346C34F1
:100AE8006C34003433342E3443346F346E347634FB
:100AF800203434342E3452346534683465346134E7
:100B0800743400344D346934633472346F34773458
:100B180061347634653420346F34763465346E3419
:100B280000345334453454342034543465346D34EB
:100B3800703420343C342A3443343E340034503446
:100B48006F3477346534723420343D34203439348A
:100B58003034303457340034543469346D346534A7
:100B680020346C346534663474343A3420340034B8
:100B7800543449344D3445342034553450342034B9
:100B880021342134213400345034723465342D3406
:100B9800683465346134743469346E3467340034CD
:100BA80050346F3477346534723469346E34673452
:100BB80020346F346E340034543449344D34453461
:100BC80020343A3420340034543449344D344534D4
:100BD80020343D3420340034543445344D345034BA
:100BE80020343D342034003435342E3450344134EC
:100BF800533400344D344F34443445345334003482
:100C080034342E34523445345334003436342E348C
:100C18005334503400340A128A1565250A128A1191
:100C2800203083120313CA00D430F6008530F70051
:100C3800C330F8000A128A15F0250A128A11863084
:100C4800F6008530F7009230F8000A128A15F02570
:100C58000A128A1183120313C9014908803EF80059
:100C6800FF300A128A1550250A128A1183120313BB
:100C78004908D03EF800FF300A128A1550250A129A
:100C88008A11413083120313C600ED30C500C50B2D
:100C98004B2EC60B4B2E502E013083120313C9075F
:100CA80010304902031C592E5A2E312E0D30831252
:100CB8000313C700AF30C600B530C500C50B622EA0
:100CC800C60B622EC70B622E692E113083120313D6
:100CD800D20001300A128A157B250A128A11831262
:100CE8000313C80011305206031D7B2E7C2EC02E24
:100CF8008F2E1230D2002030CA00C02E1330D200FE
:100D08002030CA00C02E1430D2002030CA00C02EB5
:100D18001530D200C02E4808013A03197D2E033A37
:100D28000319822E013A0319872E073A03198C2ECC
:100D38009D2EC02E4A080A128A1504270A128A1103
:100D4800D12E4A080A128A151F260A128A11D12E94
:100D58004A080A128A151F260A128A11D12E4A0831
:100D68000A128A153C250A128A11D12E0A128A15EE
:100D7800F3240A128A11D12E5208113A03199E2E11
:100D8800033A0319A52E013A0319AC2E073A0319A1
:100D9800B32E013A0319BA2ED12E21308312031330
:100DA800CA006D2E0A128A110C28831203138811A7
:100DB8000815881408146430F2000030F300FF307E
:100DC800F2070318F30AFF30F307720A031DF02E27
:100DD800730A031DF02EF12EE32E83120313061857
:100DE800F62EF72EF92E0130842F8618FC2EFD2EB4
:100DF800FF2E0230842F0619022F032F052F0330F0
:100E0800842F88150811881408146430F200003003
:100E1800F300FF30F2070318F30AFF30F307720AF2
:100E2800031D1A2F730A031D1A2F1B2F0D2F831250
:100E380003130618202F212F232F0430842F861800
:100E4800262F272F292F0530842F06192C2F2D2FD9
:100E58002F2F0630842F8815081588100814643041
:100E6800F2000030F300FF30F2070318F30AFF30F6
:100E7800F307720A031D442F730A031D442F452FDD
:100E8800372F8312031306184A2F4B2F4D2F073085
:100E9800842F8618502F512F532F0830842F06196E
:100EA800562F572F592F0930842F88150815881465
:100EB80008106430F2000030F300FF30F207031826
:100EC800F30AFF30F307720A031D6E2F730A031D1E
:100ED8006E2F6F2F612F831203130618742F752F2F
:100EE800772F2A30842F86187A2F7B2F7D2F00307A
:100EF800842F0619802F812F832F2330842FFF30D2
:100F080008000A128A1518250A128A11C830F60034
:100F18008530F7008030F8000A128A15F0250A1289
:100F28008A11B030F6008530F700C030F8000A1298
:100F38008A15F0250A128A113C30FA00831203132D
:100F48001215EC2FCB30F80030300A128A155025D4
:100F58000A128A11CC30F8000A30F2000030F3008F
:100F68007A0883120313A500A6012508F4002608B1
:100F7800F5000A128A1179240A128A117208303E81
:100F88000A128A1550250A128A11CD30F8000A3043
:100F9800F2000030F3007A0883120313A500A601BB
:100FA8002508F4002608F5000A128A1546270A12B1
:100FB8008A117208303E0A128A1550250A128A11BF
:100FC800CE30F80073300A128A1550250A128A1199
:100FD8007A08031DF02FF12FA62F01300800831285
:100FE800031312149214FA308316031392008C140C
:100FF8008312031312110800FF1B0A2883137F189A
:1010080083170008840A0319FF0A08007F087F393C
:0C1018008A000408840A0319FF0A820001
:1019E6001E3083120313D3000A128A11D6210A125B
:1019F6008A150800831603138801091189100A1233
:101A06008A159D270A128A150800831603130608ED
:101A1600073886000808F0398800811383120313FB
:101A260088150815881408140800F20101300A12F6
:101A36008A1554260A128A150430F7003D30F6003E
:101A4600F60B232DF70B232D282D0800F400F301A8
:101A5600741C2E2D2F2D312D7208F3070310F20D55
:101A66000310F40C7408031D392D3A2D2B2D730821
:101A7600080083120313C40020304406031D442DBE
:101A8600452D4F2D0A128A1518250A128A150A1293
:101A96008A1139230A128A15080083120313A40037
:101AA600F20178080A128A1554260A128A15F201DA
:101AB600F20A8312031324080A128A1554260A12FC
:101AC6008A1508000A128A15FD240A128A150A12B6
:101AD6008A11F3270A128A150A128A1508250A128C
:101AE6008A1583160313871007110B178B17080027
:101AF600F4000A128A11D9260A128A15F50074080A
:101B0600031D862D872D892D75089D2D750A0319B0
:101B16008D2D8E2D952D7B080319922D932D952DA8
:101B2600FB01872D750A031D992D9A2D9C2D0130D9
:101B3600FB00FF300800F601F701721CA32DA42D4F
:101B4600AA2D7408F6070318F70A7508F707013077
:101B56000310F40DF50DFF3E031DAB2D01300310F0
:101B6600F30CF20CFF3E031DB22D72087304031D25
:101B7600BD2DBE2DA02D7708F3007608F2000800D3
:101B8600831203138C1CC82DC92DE92D0130CB07F8
:101B96000318CC0A0030CC0758304B060230031924
:101BA6004C06031DD72DD82DE82DCB01CC015308AB
:101BB6000319DE2DDF2DE12D0130D3027A0803193A
:101BC600E52DE62DE82D0130FA028C1071088A0009
:101BD600700E8300FE0E7E0E0900F20178080A12CE
:101BE6008A1554260A128A150E2EF201F20A770871
:101BF600FF00760884000A128A1500200A128A1548
:101C06000A128A1554260A128A150130F607031895
:101C1600F70A0030F707770883120313FF007608E8
:101C260084000A128A1500200A128A15003A031D3A
:101C36001D2E1E2EF82D080083120313B900203026
:101C46003906031D272E282E472E0A128A15182517
:101C56000A128A15A330F6008530F700C330F80063
:101C66000A128A15F0250A128A150D3083120313FB
:101C7600B800AF30B700B530B600B60B402EB70B84
:101C8600402EB80B402E472E831203135108031D16
:101C96004D2E4E2E532E0A128A1124200A128A1510
:101CA6000800F5007218582E5C2E831203130915CE
:101CB6005F2E8312031309117508F0398800891401
:101CC600A630F300F30B652E000083120313891070
:101CD60075080F39F30003300310F30DFF3E031DA3
:101CE6006F2E0310730D88008914A630F300F30BD2
:101CF6007A2E00008312031389101B30F4009E30E5
:101D0600F300F30B842EF40B842E000008007208F7
:101D1600730403198F2E902EBD2E0130F6009C2ED3
:101D260001300310F20DF30DFF3E031D942E01301A
:101D3600F607F31F9F2EA02E932E73087502031D20
:101D4600A62E72087402031CA92EAA2EB02E7208A3
:101D5600F4027308031CF503F50201300310F30CBB
:101D6600F20CFF3E031DB12E0130F602031DBC2E00
:101D7600BD2EA02E7508F3007408F2000800F601C7
:101D8600F701720873040319C92ECA2EFF2E0130FB
:101D9600F800D62E01300310F20DF30DFF3E031DA1
:101DA600CE2E0130F807F31FD92EDA2ECD2E0130B4
:101DB6000310F60DF70DFF3E031DDB2E73087502AB
:101DC600031DE72E72087402031CEA2EEB2EF22E78
:101DD6007208F4027308031CF503F5027614013049
:101DE6000310F30CF20CFF3E031DF32E0130F80234
:101DF600031DFE2EFF2EDA2E7708F3007608F2007A
:101E0600080083120313A30020302306031D0C2FA2
:101E16000D2F2B2F0A128A1518250A128A15FE3045
:101E2600F6008530F7008530F8000A128A15F0258D
:101E36000A128A15333083120313A200BB30A100A5
:101E4600DF30A000A00B252FA10B252FA20B252FDD
:101E5600113083120313D2006630F6008530F70086
:101E66008030F8000A128A15F0250A128A15763093
:101E7600F6008530F700C030F8000A128A15F02502
:101E86000A128A150800F701F51F4A2F4B2F522F09
:101E9600F409F509F40A0319F50A0130F700F31FEE
:101EA600552F562F5B2FF209F309F20A0319F30A8D
:101EB600720873040319602F612F8E2F0130F6000C
:101EC6006D2F01300310F20DF30DFF3E031D652F3C
:101ED6000130F607F31F702F712F642F73087502F8
:101EE600031D772F72087402031C7A2F7B2F812F14
:101EF6007208F4027308031CF503F502013003109F
:101F0600F30CF20CFF3E031D822F0130F602031D77
:101F16008D2F8E2F712F77080319922F932F982FBD
:101F2600F409F509F40A0319F50A7508F3007408AB
:101F3600F2000800C330F700CD30F600F60BA12FF3
:101F4600F70BA12FF20133300A128A1554260A1212
:101F56008A151B30F7009E30F600F60BB02FF70BF4
:101F6600B02F0000F20133300A128A1554260A12E5
:101F76008A15A630F600F60BBE2F0000F2013330AC
:101F86000A128A1554260A128A15C92FCA2F00006A
:101F9600F20102300A128A1554260A128A15A63050
:101FA600F600F60BD42F0000F20128300A128A152B
:101FB60054260A128A15A630F600F60BE02F00000A
:101FC600F20101300A128A1554260A128A150430C3
:101FD600F7003D30F600F60BEE2FF70BEE2FF32F42
:101FE600F2010C300A128A1554260A128A15A630F6
:0A1FF600F600F60BFC2F00000800B7
:08400000FF3FFF3FFF3FFF3FC0
:02400E00FB3F76
:00000001FF
